:100000009AEF00F00000000000EF00F00000000098
:0A0010000000000000000000F3D71C
:0A001C00000E9EBA010E006E1200E5
:10002600AECF1DF0ABA202D0AB98AB881DC000F0DE
:020036001200B6
:100038000900F5CFE6FF0006FBE10106F9E1120031
:10004800FF0E156EFF0E166EFF0E176EFF0E186E62
:10005800260E196E000E1A6E000E1B6E000E1C6E18
:100068001C0E276E000E286E000E296E000E2A6EDA
:10007800FF0E236EFF0E246E000E256E000E266EF8
:10008800AC8A900EAB6E948E949C9EAA03D0AECF91
:0600980000F0FBD712008E
:10009E00316A326A2F5241E02F50FF0A01E02F06DB
:1000AE00B6DF0050000A01E1FBD7B6DF00C030F02A
:1000BE0031502B24E16E000E2C20E26E00C0E6FFC4
:1000CE00312A32502D24E96E000E2E20EA6EEE50AB
:1000DE00301802E1322A09D0326A2DC0E9FF2EC053
:1000EE00EAFFEE50301801E1322A32502D24E96E2B
:1000FE00000E2E20EA6EEE50000A0EE13250315CF8
:10010E00006E016A000E015A00502B24E16E015060
:10011E002C20E26EE66A1200BDD72BC0E1FF2CC088
:06012E00E2FFE66A120088
:10013400956A836A330EAF6EAC8484DF6DDF005042
:10014400010A0BE11E0E2B6E000E2C6E5D0E2D6E41
:10015400000E2E6E0A0E2F6EA0DF1E505B0A0BE1FE
:100164001F50310A08E12050300A01E183902050E9
:0A017400310A01E18380E2D7FFD7D2
:020000040030CA
:0D000100021F1EFF8381FF0FC00FE00F40A4
:00000001FF
